:1000000019C033C032C031C030C02FC02EC02DC087
:100010002CC02BC02AC029C028C027C026C025C09C
:1000200024C023C022C021C020C059C01EC01DC092
:100030001CC01BC011241FBECFEFD2E0DEBFCDBF5E
:1000400011E0A0E0B1E0E2ECF5E002C005900D9215
:10005000A230B107D9F721E0A2E0B1E001C01D92C2
:10006000AE38B207E1F760D0AAC2CACFCF93DF9310
:1000700000D0CDB7DEB7815070F01A821982298185
:100080003A8129313105BCF729813A812F5F3F4FF1
:100090003A832983F4CF0F900F90DF91CF91089589
:1000A000623091F0633091F0613061F028988BB943
:1000B0008BB1803569F482E0D9DF289A299A2A9A8F
:1000C0002E9A08952998F3CF2A98F1CF2E98EFCF42
:1000D0008BB1803711F483E0EFCF85E0EDCF1F9235
:1000E0000F920FB60F9211242F933F938F93EF939C
:1000F000FF93809187012091780030917900E82F5B
:10010000F0E0EE0FFF1FE95FFE4F318320838F5F2A
:1001100080938701FF91EF918F913F912F910F90E5
:100120000FBE0F901F9018958FEF8AB91BB8209AB9
:10013000219A229A269A289A299A2A9A2E9A809166
:100140007A00816080937A0080917A008260809347
:100150007A0080917A008B7F80937A0080917C0076
:10016000806480937C0080917A00886080937A001C
:1001700080917A00806880937A0080917A00806410
:1001800080937A007894C2E8D0E060E08CEF88DF5A
:1001900061E088ED85DF62E080EF82DF63E08AEE78
:1001A0007FDF219791F730E1C32E37E2D32E4AE06B
:1001B000E42EF12C54E6A52EB12C68EE862E63E0D9
:1001C000962E02E07724739480917A008064809365
:1001D0007A0080918701803409F069C0109287010C
:1001E000C0910701D091080196E0CC0FDD1F9A95D0
:1001F000E1F780930201D0938901C093880126E042
:10020000D695C7952A95E1F7D0938B01C0938A01C3
:10021000BE0190E080E0CED024EF3DEF44ED51E40C
:100220002FD19CD090E080E0C5D024E13EEA47E8A1
:100230005FE3CB30D10558F09E012B5031092231BC
:10024000310508F04AC02FE832EC45E85FE318D1E9
:1002500085D070938D0160938C0120918C01309139
:100260008D01C901B60197D1FB01C901B70193D135
:10027000D82FCB01B7018FD1C82FC901B5018BD1C0
:10028000CB01B70188D1482FC901B40184D1CB017A
:10029000B70181D1309709F038C0D0930601C093DF
:1002A0000501409304018093030170920001409086
:1002B0000001C3E0D1E0512CE991EA3090F5F0E083
:1002C000ED59FE4F099448C02BC036C037C038C026
:1002D00039C03AC03BC03CC03DC09E012D513109E0
:1002E0002D31310528F42AE037ED43E85FE3AFCF45
:1002F000EA972EEA37E441E85FE3A59708F4A7CF31
:1003000023E333E343E75FE3A2CFC09306014093C7
:10031000050180930401E093030100930001C7CF1E
:1003200010E5451001C01160652D812FB9DE539491
:1003300084E05812C1CF48CF1EE6F3CF16E7F1CFC5
:1003400012EDEFCF16EBEDCF1EEBEBCF10E7E9CFC1
:100350001EEFE7CF16EFE5CF1CEFE3CF70D088F0AC
:100360009F5790F0B92F9927B751A0F0D1F0660FA1
:10037000771F881F991F1AF0BA95C9F712C0B130BC
:1003800081F077D0B1E0089574C0672F782F882767
:10039000B85F39F0B93FCCF3869577956795B395FB
:1003A000D9F73EF490958095709561957F4F8F4F6A
:1003B0009F4F0895E89409C097FB3EF4909580956F
:1003C000709561957F4F8F4F9F4F9923A9F0F92F1B
:1003D00096E9BB279395F695879577956795B79599
:1003E000F111F8CFFAF4BB0F11F460FF1BC06F5F7F
:1003F0007F4F8F4F9F4F16C0882311F096E911C091
:10040000772321F09EE8872F762F05C0662371F0B1
:1004100096E8862F70E060E02AF09A95660F771FC5
:10042000881FDAF7880F9695879597F9089557FDF5
:100430009058440F551F59F05F3F71F04795880F52
:1004400097FB991F61F09F3F79F0879508951216E9
:1004500013061406551FF2CF4695F1DF08C0161695
:1004600017061806991FF1CF869571056105089446
:100470000895E894BB2766277727CB0197F908955D
:100480000BD078C069D028F06ED018F0952309F011
:100490005AC05FC01124EECFCADFA0F3959FD1F3FD
:1004A000950F50E0551F629FF001729FBB27F00D22
:1004B000B11D639FAA27F00DB11DAA1F649F662777
:1004C000B00DA11D661F829F2227B00DA11D621FC6
:1004D000739FB00DA11D621F839FA00D611D221F80
:1004E000749F3327A00D611D231F849F600D211D64
:1004F000822F762F6A2F11249F5750408AF0E1F007
:1005000088234AF0EE0FFF1FBB1F661F771F881F4F
:1005100091505040A9F79E3F510570F014C0AACFEA
:100520005F3FECF3983EDCF3869577956795B7953A
:10053000F795E7959F5FC1F7FE2B880F911D969564
:10054000879597F9089597F99F6780E870E060E0D4
:1005500008959FEF80EC089500240A94161617065C
:1005600018060906089500240A94121613061406A4
:1005700005060895092E0394000C11F4882352F007
:10058000BB0F40F4BF2B11F460FF04C06F5F7F4FBF
:100590008F4F9F4F0895AA1BBB1B51E107C0AA1F95
:1005A000BB1FA617B70710F0A61BB70B881F991F14
:1005B0005A95A9F780959095BC01CD010895F894BE
:0205C000FFCF6B
:0205C200020035
:00000001FF
